S021000062696E2F6F70656E626C745F73746D333266343133726774362E737265630E
S315080000000000052055050008A5050008A5050008F7
S31508000010A5050008A5050008A505000800000000BC
S31508000020000000000000000000000000A505000810
S31508000030A505000800000000A5050008A13B00086A
S31508000040A5050008A5050008A5050008A5050008DA
S31508000050A5050008A5050008A5050008A5050008CA
S31508000060A5050008A5050008A5050008A5050008BA
S31508000070A5050008A5050008A5050008A5050008AA
S31508000080A5050008A5050008A5050008A50500089A
S31508000090A5050008A5050008A5050008A50500088A
S315080000A0A5050008A5050008A5050008A50500087A
S315080000B0A5050008A5050008A5050008A50500086A
S315080000C0A5050008A5050008A5050008A50500085A
S315080000D0A5050008A5050008A5050008A50500084A
S315080000E0A5050008A5050008A5050008A50500083A
S315080000F0A5050008A5050008A5050008A50500082A
S31508000100A5050008A5050008A5050008A505000819
S31508000110A5050008A5050008A5050008A505000809
S31508000120A5050008A5050008A5050008A5050008F9
S31508000130A5050008A5050008A5050008A5050008E9
S31508000140A5050008A5050008A5050008A5050008D9
S31508000150A5050008A5050008A5050008A5050008C9
S31508000160A5050008A5050008A5050008A5050008B9
S31508000170A5050008A505000800000000000000000D
S31508000180A5050008A5050008A5050008A505000899
S31508000190A5050008A505000800000000A50500083B
S315080001A0A5050008A50500080000000000000000DD
S315080001B0A50500080000000000000000A5050008CD
S315080001C0A5050008A5050008A5050008A505000859
S30D080001D0A5050008A5050008B5
S315080001D810B5054C237833B9044B13B10448AFF36B
S315080001E800800123237010BDCC0100200000000008
S315080001F84C50000808B5034B1BB103490348AFF335
S31508000208008008BD00000000D00100204C500008FE
S3150800021853B94AB9002908BF00281CBF4FF0FF3157
S315080002284FF0FF3000F088B9ADF1080C6DE904CE3F
S3150800023800F006F8DDF804E0DDE9022304B07047AB
S315080002482DE9F047089D8E4604468846002B4AD174
S315080002588A42174662D9B2FA82F64EB1C6F1200327
S3150800026801FA06F820FA03F3B74043EA0808B44047
S315080002784FEA174E1FFA87FCB8FBFEF1230C0EFB54
S31508000288118843EA084301FB0CF29A4209D9FB187C
S3150800029801F1FF3080F0EA809A4240F2E78002399D
S315080002A83B449A1AA3B2B2FBFEF00EFB102243EAAD
S315080002B8024300FB0CFC9C4509D9FB1800F1FF32E8
S315080002C880F0D6809C4540F2D3803B44023840EA09
S315080002D80140A3EB0C0300211DB1F3400022C5E938
S315080002E80032BDE8F0878B4205D90DB1C5E9000192
S315080002F800210846F5E7B3FA83F1002946D1734584
S3150800030802D3824200F20581841A6EEB03020120A9
S315080003189046002DE5D0C5E90048E2E7002A00F036
S315080003289080B2FA82F6002E40F0A4808A1A030C4E
S315080003384FEA174E80B2BCB20121B2FBFEFC0EFB97
S315080003481C2243EA024304FB0CF29A4207D9FB181B
S315080003580CF1FF3802D29A4200F2E080C4469B1A92
S31508000368B3FBFEF20EFB123340EA034302FB04F426
S315080003789C4207D9FB1802F1FF3002D29C4200F2D0
S31508000388CA8002461B1B42EA0C40A5E7C1F12006B3
S315080003988B4022FA06F71F430EFA01F420FA06F3F1
S315080003A82EFA06FE4FEA1749234300FA01F81FFA00
S315080003B887FCBEFBF9F01C0C09FB10EE44EA0E4458
S315080003C800FB0CFEA64502FA01F209D93C1900F110
S315080003D8FF3A80F09C80A64540F2998002383C4452
S315080003E8A4EB0E041FFA83FEB4FBF9F309FB1344C6
S315080003F84EEA044403FB0CFCA44508D93C1903F14E
S31508000408FF3E80F08280A4457FD9023B3C4443EAFC
S315080004180040A4EB0C04A0FB02EC64457346E146D5
S3150800042862D35FD05DB1B8EB030264EB090404FA42
S3150800043806F622FA01F31E43CC40C5E900640021FA
S315080004484FE7B1FBF2FC010C41EA0E4180B240EAE3
S3150800045801423B4638463C46B846BE462026B1FBCE
S31508000468F7F1A2EB080241EA0C4166E7014618E7EC
S3150800047810462CE7C6F120022EFA02F3B740B1401F
S3150800048820FA02F24FEA174E0A43B3FBFEF8BCB24B
S315080004980EFB1833110C41EA034108FB04F9B04076
S315080004A889454FEA104380B23ED9791808F1FF3CCE
S315080004B801D289451FD8A1EB0901B1FBFEF909FB51
S315080004C804F80EFB191192B242EA0142424529D2B2
S315080004D8BA1809F1FF31C4D24245C2D2A9F10201BC
S315080004E83A44BEE7F0459DD2BEEB02036CEB070C17
S315080004F80138E14696E7A7EB09094944A8F1020C31
S31508000508B1FBFEF909FB04F8DBE773467FE75046BB
S3150800051866E70846FDE63B44023A33E7ACF1020CC7
S315080005283B441CE749469CE7A1EB0901C446B1FBD5
S31508000538FEF909FB04F8C4E7704700BF034613F839
S31508000548012B002AFBD1181A01387047DFF834D076
S3150800055803F092F90C480D490D4A002302E0D458D5
S31508000568C4500433C4188C42F9D30A4A0A4C0023E7
S3150800057801E013600432A242FBD304F03FFD03F006
S3150800058885F9704700000520000000208C0100202E
S315080005981C520008CC01002028130020FEE70000A2
S315080005A808B506484FF4005100F044FE012803D068
S315080005B800F036F8012008BD0020FCE700080240D4
S315080005C8642000F005B800F009B87047704770470E
S315080005D8014B1880704700BFF001002010B50C4C7D
S315080005E804F05EFB236898420ED30A4B1A7862B960
S315080005F8012209481A70802100F022FE04F050FBF7
S31508000608064B1B880344236010BD0022F1E700BF90
S31508000618EC010020E801002000040240F001002057
S3150800062802480022802100F00BBE00BF00040240E9
S315080006380B4B6FF49A3210B51A620024094A1C62E9
S315080006485A62094A5C621A61C0221C615A6103220D
S315080006585C619A619C6103F03FFA204610BD00BFB1
S3150800066800380240F3795703FF10600038B50E4B7F
S315080006781A784FF47A73B3FBF2F30C4A05461068F6
S31508000688B0FBF3F000F0ACFA044658B90F2D09D8B8
S31508000698024629464FF0FF3000F070FA044B204610
S315080006A81D6038BD0120FCE7000000200800002076
S315080006B80400002008B50B4B1A6842F400721A6049
S315080006C81A6842F480621A601A6842F480721A60DC
S315080006D8032000F041FA0020FFF7C8FF03F044F9A9
S315080006E8002008BD003C024038B5044604F0E0FA8C
S315080006F8631C1CBF054B1B78054618BFE41804F095
S31508000708D7FA431BA342FAD338BD00BF000000201E
S31508000718704738B50446002874D090F820300BB9CD
S31508000728FFF7F6FF2268136843F00103136004F025
S31508000738BFFA054623685A68D10757D51A6822F0BA
S3150800074802021A6004F0B4FA054623685A68920742
S315080007585AD4227E012A1A680CBF42F0800222F077
S3150800076880021A602368627E012A1A680CBF42F062
S31508000778400222F040021A602368A27E012A1A68FB
S315080007880CBF42F0200222F020021A602368E27E9B
S31508000798012A1A680CBF22F0100242F010021A60E9
S315080007A82368227F012A1A680CBF42F0080222F041
S315080007B808021A602368627F012A1A680CBF42F089
S315080007C8040222F004021A60D4E9023213432269A9
S315080007D821681343626913436268013A1343CB617C
S315080007E800200123606284F820300CE004F060FAE7
S315080007F8401B0A289ED9636A43F4003363620523BB
S3150800080884F82030012038BD04F052FA401B0A2823
S315080008189BD9F0E770B590F820200368013A012AB9
S315080008287ED8424A424893420CBF1346034683423F
S31508000838D3F8002242F00102C3F800220CD1D3F8FB
S31508000848002222F47C52C3F80022D3F80022486A10
S3150800085842EA0022C3F800224A69D3F81C4201205A
S3150800086802F01F0200FA02F224EA0204C3F81C4244
S31508000878CC69D043ACB9D3F80C420440C3F80C424F
S315080008884C69CE688D88483445EA064543F834509D
S315080008984C698E680D88483403EBC40445EA064556
S315080008A86560CC69012C15D1D3F80C421443C3F8FA
S315080008B80C424C690E688D88483445EA064543F863
S315080008C834504C698E688D89483403EBC40445EA6C
S315080008D8064565608C69DCB9D3F804420440C3F858
S315080008E804420C69C4B9D3F814422040C3F8140268
S315080008F8096A012902BFD3F81C120A43C3F81C2245
S31508000908D3F8002222F00102C3F80022002070BDA5
S31508000918D3F804421443E2E7D3F814021043E5E790
S31508000928436A43F4802343620120F0E7006C0040E1
S315080009380064004038B590F82030012B04461FD1D2
S315080009480268022380F82030136823F00103136035
S3150800095804F0AEF905462368586810F0010001D17D
S31508000968606238BD04F0A4F9401B0A28F3D9636A03
S3150800097843F400336362052384F820300120F0E746
S31508000988436A43F400234362F8E7F0B590F8205029
S315080009980468013D012DA46845D814F0E05F3CD0F1
S315080009A8C4F301640125A5401D608B680668CD68F7
S315080009B804F1180753BB0B6845EA43553B01F55044
S315080009C803680D6903EB07135D600B7D012B4FEA7E
S315080009D8041307D101681944D1F8844144F4807492
S315080009E8C1F88441016854681944C1F88C411168F2
S315080009F802681A44C2F88811026813440020D3F81A
S31508000A08802142F00102C3F88021F0BD2B434D68CE
S31508000A1843EAC5033D017351D2E7436A43F4001319
S31508000A2843620120F1E7436A43F48023F8E790F824
S31508000A382030013B012B09D803689B6803EA8163C8
S31508000A48B3EB816F14BF0120002070470020704760
S31508000A58F0B590F82040013C012C79D8046841B9D2
S31508000A68E568AD0707D1436A43F4001343620120DA
S31508000A78F0BD2569F5E701F11B052E01A45904F017
S31508000A88040494600768002C59D1BC59640D146095
S31508000A9806682C01345904F00204D460066806EB8B
S31508000AA801160C01D6F8B4713F0756BFD6F8B461DB
S31508000AB8082606F00F061661066806EB0516766818
S31508000AC8C6F307269661066806EB051675682D0CA3
S31508000AD8556102682244D2F8B8211A70026822447D
S31508000AE8D2F8B821120A5A7002682244D2F8B821F4
S31508000AF8120C9A7002682244D2F8B821120EDA70DB
S31508000B0802682244D2F8BC211A7102682244D2F833
S31508000B18BC21120A5A7102682244D2F8BC21120C66
S31508000B289A7102682244D2F8BC21120EDA71036857
S31508000B3849B9DA6842F02002DA60002098E7BC5919
S31508000B48E4085460A4E71A6942F020021A61F4E737
S31508000B58436A43F4802389E70749CA6822F4E062AE
S31508000B680302120403F4E063120C134343F0BF6351
S31508000B7843F40033CB60704700ED00E030B5164B00
S31508000B88DC68C4F30224C4F10703251D042B28BF17
S31508000B980423062D4FF0FF358CBF033C002405FAC5
S31508000BA803F321EA0303A54022EA0502A340002825
S31508000BB843EA0203ACBF00F16040084A4FEA031350
S31508000BC8B8BF00F00F00DBB2AABF00F561401354A6
S31508000BD880F8003330BD00BF00ED00E014ED00E0FA
S31508000BE80138B0F1807F0BD24FF0E023054A5861EF
S31508000BF8F02182F823100020072298611A617047AD
S31508000C080120704700ED00E010B509490C6924F485
S31508000C1840740C610C6944F440740C610C6944F026
S31508000C2801040C610260BFF36F8F436010BD00BFFB
S31508000C38003C0240074B1A6922F440721A611A6985
S31508000C4842F400721A611A6942F001021A610160D7
S31508000C58704700BF003C0240074B1A6922F44072ED
S31508000C681A611A6942F480721A611A6942F0010215
S31508000C781A610180704700BF003C0240204BDA68C1
S31508000C88D00606D51F49CA6942F01002CA61102261
S31508000C98DA60DA68910606D51A49CA6942F008027E
S31508000CA8CA612022DA60164BDA68520606D5154953
S31508000CB8CA6942F00402CA614022DA60DA68100694
S31508000CC806D51049CA6942F00202CA618022DA606A
S31508000CD80B4BDA68D10507D50A49CA6942F00102F9
S31508000CE8CA614FF48072DA60DA68920706D5054950
S31508000CF8CA6942F02002CA610222DA60704700BF58
S31508000D08003C0240F4010020064B1A69002ABFBFBE
S31508000D18054A5A6002F188325A60BABF1869C00F84
S31508000D2800207047003C024023016745034A1369BF
S31508000D3843F0004313610020704700BF003C02409F
S31508000D48114B70B500220446DA6103F0B1FF0F4D66
S31508000D580646EB68DA030CD4EB68DB0744BF0123C5
S31508000D68EB60E86810F4F97007D0FFF787FF0120F1
S31508000D7803E0611CEDD00CB9032070BD03F098FFA1
S31508000D88801BA042E5D9F7E7F4010020003C0240A1
S31508000D982DE9F0411F4E9846337E012B07460D462E
S31508000DA8144635D001234CF250303376FFF7C8FF86
S31508000DB8B0B9CFB9184B1A6922F440721A611A6980
S31508000DC81A611A69E4B242F001021A612C704CF2EF
S31508000DD85030FFF7B5FF104A136923F00103136172
S31508000DE800233376BDE8F081012F04D1A1B2284645
S31508000DF8FFF732FFEBE7022F04D121462846FFF713
S31508000E0819FFE4E7224643462846FFF7FDFEDEE7D4
S31508000E180220E7E7F4010020003C0240074B1A6964
S31508000E2822F440721A611A6942F004021A611A69B0
S31508000E3842EA002242F480321A617047003C0240B6
S31508000E480D4B1A6922F440721A611A69022994BF6D
S31508000E5809024FF440710A431A611A6922F07802A6
S31508000E681A611A6942EAC00040F0020018611A6954
S31508000E7842F480321A617047003C0240144B1A68E3
S31508000E8891050FD51A6822F400721A601A6842F496
S31508000E9800621A601A6822F400621A601A6842F434
S31508000EA800721A600A4B1A6852050FD51A6822F496
S31508000EB880621A601A6842F480521A601A6822F424
S31508000EC880521A601A6842F480621A60704700BF36
S31508000ED8003C02402DE9F843DFF8948098F818306A
S31508000EE8012B05460F463FD001234CF2503088F8AF
S31508000EF81830FFF725FF0446A0B94FF0FF333B60CB
S31508000F082B68012B14D1287CFFF788FF4CF2503048
S31508000F18FFF716FF154A136923F0040304461361FD
S31508000F28FFF7ACFF002388F818302046BDE8F88399
S31508000F38AE68DFF83890D5E902231344B342EFD9EF
S31508000F48297C3046FFF77CFF4CF25030FFF7F8FE55
S31508000F58D9F8103023F07A03C9F8103010B13E607A
S31508000F680446DDE70136E6E70224DEE7003C0240F0
S31508000F78F40100202DE9F74FDFF8A4C1664A0023DB
S31508000F884FF0010E4FF003080E680EFA03F404EA50
S31508000F980605B44340F0AD804C6804F003045F00CE
S31508000FA8013C08FA07F6012C6FEA060611D8846888
S31508000FB804EA0609CC68BC4044EA09048460446823
S31508000FC824EA05094C68C4F300149C4044EA090459
S31508000FD844604C6804F00304032C23D0C46804EA6C
S31508000FE806098C68BC4044EA0904C4604C6804F0E5
S31508000FF80304022C16D14FEAD30A00EB8A0A03F037
S31508001008070BDAF820404FEA8B0B4FF00F0909FA5D
S315080010180BF924EA09090C6904FA0BF444EA0904E9
S31508001028CAF82040046826404C6804F00304BC400B
S31508001038344304604C6814F4403F5AD000240194A1
S31508001048DCF8444044F48044CCF84440DCF8444096
S3150800105823F0030606F1804604F4804406F59C3618
S31508001068019403F00307019CD6F80890BF000F24E3
S31508001078BC4029EA0409294CA04241D004F58064F9
S31508001088A0423FD004F58064A0423DD004F58064B0
S31508001098A0423BD004F58064A04239D004F58064A8
S315080010A8A04237D004F58064A04214BF072406245A
S315080010B8BC4044EA0904B4604C689768EE43E40205
S315080010C854BF37402F4397604C68D768A40254BF6B
S315080010D837402F43D7604C685768A40354BF374036
S315080010E82F4357604C681768E40354BF37402F43AB
S315080010F817600133102B7FF447AF03B0BDE8F08FB4
S315080011080024D5E70124D3E70224D1E70324CFE74F
S315080011180424CDE70524CBE7003C01400000024043
S31508001128003802402DE9F04F404C00224FF0010AE2
S315080011384FF00F084FF0030B0AFA02FC3CEA0103CA
S315080011480CEA010660D122F0030505F1804505F58C
S315080011589C3502F00307AB68BF0008FA07F909EAE5
S31508001168030E334B984254D003F58063984252D005
S3150800117803F58063984250D003F5806398424ED0B1
S3150800118803F5806398424CD003F5806398424AD0A9
S3150800119803F58063984214BF07230623BB407345AB
S315080011A813D1236823EA06032360636823EA060340
S315080011B86360E36823EA0603E360A36823EA060391
S315080011C8A360AB6823EA0903AB60056853000BFA0A
S315080011D803F3D60825EA030500EB8606056002F040
S315080011E80705376AAD0008FA05F527EA05073762DD
S315080011F8C56825EA0305C560456825EA0C054560FE
S31508001208856825EA030383600132102A94D1BDE86C
S31508001218F08F0023C2E70123C0E70223BEE70323B2
S31508001228BCE70423BAE70523B8E700BF003C01403A
S31508001238000002400369194214BF012000207047C4
S315080012480AB1816170470904FBE77047F7B5044698
S3150800125810B390F89534056803F0FF021BB980F8B7
S315080012689424FFF7F2FF0323B5F1A04F84F89534C9
S3150800127804BF0023A371206801F0B8FA237C8DF80F
S315080012880030251D95E80E00206801F0F4F901469E
S3150800129830B1022384F895340125284603B0F0BDF9
S315080012A8206801F0A9FA0028F3D1267904F1140375
S315080012B801270246C1B28E4203F1240321D8002130
S315080012C804F515730A46C8B2864203F1240326D8DC
S315080012D8237C8DF8003095E80E00206801F008FB9D
S315080012E805460028D5D10123607484F89534237BF4
S315080012F8012B02D1204600F070FD206801F050FE4F
S31508001308CBE723F80A0C43E9072203F8237C03F8FA
S31508001318241C03F8202C43F8142C0130CAE743E9A7
S31508001328072203F8232C03F8240C03F8202C43F887
S31508001338142C0131C7E7704738B5044610B901259A
S31508001348284638BD032380F89534006801F0EAFD7D
S3150800135805460028F3D12046FFF7EDFF84F8955493
S31508001368EEE710B590F894240368012A044616D0C7
S31508001378012280F89424DA68520606D5427B012AA7
S3150800138802BF9A6B42F480329A63206801F028FA01
S31508001398206801F0F7FD002084F8940410BD0220A7
S315080013A8FCE738B590F89434012B04461BD0056839
S315080013B8012380F89434284601F018FA206801F0C9
S315080013C8EFFD2068102101F047FAEB685B0606D5A1
S315080013D8637B012B02BFAB6B23F48033AB6300201E
S315080013E884F8940438BD0220FCE710B590F89424D4
S315080013F80368012A044613D0012280F89424DA687F
S31508001408520606D5427B012A02BF9A6B42F48032FD
S315080014189A63206801F0B6FD002084F8940410BD8C
S315080014280220FCE738B590F89434012B044614D00A
S315080014380568012380F89434284601F0B1FDEB6865
S315080014485B0606D5637B012B02BFAB6B23F480339F
S31508001458AB63002084F8940438BD0220FCE710B575
S3150800146890F89424012A04460AD0012280F8942484
S315080014784174006801F076FD002084F8940410BDD4
S315080014880220FCE770B501F00F0606EBC60411F05A
S31508001498800F05464FEA84044FF024001ED000FB4F
S315080014A8065004F114010124294444758A604A78CF
S315080014B80E700B7102B14E83022B04BF00234B71C9
S315080014C895F89434012B12D00123286885F89434AA
S315080014D801F0D1FA002085F8940470BD00FB065087
S315080014E804F515710024294480F85542DEE70220E0
S315080014F8F3E710B5044601F00F0000EBC00311F03E
S31508001508800F4FEA83034FF0240215D002FB0042EE
S3150800151803F11401012321445375087094F894348F
S31508001528012B12D00123206884F8943401F0E2FADA
S31508001538002084F8940410BD02FB004203F51571D7
S315080015480023214482F85532E7E70220F3E770B50D
S3150800155801F00F05242404FB050104FB0504C4E96E
S3150800156898230023C4F8683284F8553284F854520C
S3150800157816468279012A08BFC4F8706201F5157102
S31508001588006801F079FB002070BD01F00F012423E3
S3150800159803FB0100D0F86802704770B501F00F0523
S315080015A8242404FB050104FB0504C4E908230023D5
S315080015B8A362012363752575164682799A4208BF80
S315080015C826631431006801F057FB002070BD38B552
S315080015D8037901F00F05AB4204462BD311F0800FAF
S315080015E84FF024001DD000FB054100FB05400123F0
S315080015F81431437501238B700D7094F894249A421C
S315080016081AD0206884F8943401F038FC2DB9A179E9
S31508001618206804F29C4201F011FD002084F8940425
S3150800162838BD00FB01431A4603F51571002382F8F5
S315080016385532DFE70120F3E70220F1E738B50379E9
S3150800164801F00F029342044629D302EBC20311F0B4
S31508001658800F4FEA83034FF0240017D000FB02409F
S3150800166803F1140101232144437500258D700A707E
S3150800167894F89434012B14D00123206884F8943400
S3150800168801F027FC84F89454284638BD00FB02402C
S3150800169803F515710023214480F85532E5E7012042
S315080016A8F3E70220F1E701F00F0303EBC3030A0689
S315080016B84FEA83034CBF03F1140103F5157101447E
S315080016C8006801F077BA00002DE9F04F066889B07E
S315080016D80446304601F0A0FC0390002840F07181CA
S315080016E8206801F06BFC002800F06B81D6F80838F2
S315080016F82068C3F30D23C4F8D43401F05FFC8707C8
S3150800170841BF2268536903F002035361206801F058
S3150800171855FCC00606F500652DD52268936923F0A1
S3150800172810039361D6F8208008F4F013B3F5802FD8
S3150800173808F00F0740F0488147F6F07318EA030FD8
S3150800174814D0242303FB0747C8F30A19D7F86012ED
S315080017584A46304601F072FBD7F860324B44C7F860
S315080017686032D7F868324B44C7F8683222689369FA
S3150800177843F010039361206801F020FC010300F18F
S315080017883681206801F01AFC42030DD5206801F05D
S3150800179821FC2746049006F5106B4FF0000A049BB7
S315080017A82068002B40F0ED81206801F007FC00282E
S315080017B813DA6B6823F001036B6094F8CC34012BB9
S315080017C840F08582002184F8CC14204600F018FBE6
S315080017D82268536903F000435361206801F0EEFB61
S315080017E800050AD5AB68D90702D5204602F0E6FAFD
S315080017F82268536903F400635361206801F0DEFB2D
S31508001808020115D52268536903F00063536194F8F9
S31508001818CC34002B40F05F822368012184F8CC146D
S315080018285B6DC3F38303C4F8D034204600F0E8FAA6
S31508001838206801F0C3FBC30433D56B6823F00103A2
S315080018486B601021206801F007F806F510634FF65B
S315080018587F3122790398824200F24182EB6943F08C
S315080018680113EB61E37B002B00F05682D5F8843030
S3150800187843F00B03C5F884306B6C43F00B036B64B9
S31508001888D6F8003823F4FE63C6F8003804F29C42FA
S31508001898A179206801F0D2FB2268536903F48053C2
S315080018A85361206801F08AFB870416D5206801F081
S315080018B8B7FB206801F0D4F8E071276800F06EFBE2
S315080018C8E2790146384600F01BFF204602F05EFA28
S315080018D82268536903F400535361206801F06EFBCC
S315080018E8000707D5204602F04CFA2268536903F028
S315080018F808035361206801F061FB010600F11782AD
S31508001908206801F05BFBC2020CD5A04606F51269F1
S3150800191801272379BB4200F223822268536903F41C
S3150800192880135361206801F049FB83022CD52346AE
S3150800193806F53260012122798A4220D993F87CC2B9
S315080019480268BCF1010F40F02182002A80F21E824B
S31508001958D4F8D47402F4803207F00107BA4240F08A
S31508001968158283F87BC2B26942F08002B261726955
S31508001978170600F10B826B6843F400736B602268E4
S31508001988536903F400135361206801F017FB4100FB
S3150800199807D5204602F03EFA2268536903F08043C9
S315080019A85361206801F00AFB42070AD523685D6877
S315080019B86B0702D5204602F038FA226853682B438B
S315080019C8536009B0BDE8F08FB3F5402F7FF4CEAE6B
S315080019D8082204F29C41304601F030FA242303FB1E
S315080019E80747C8F30A18D7F868324344BCE620689C
S315080019F801F0E8FA06F530680490A2460027049B29
S31508001A082068002B3FF4BDAE049BDB0778D55FFA48
S31508001A1887FB594601F0E6FA10F0010F81461FD0F8
S31508001A280123C8F80830206894F806C0016C00F548
S31508001A38306303EB4713BCF1010F9A6840F08B80BB
S31508001A4812F0080F07D0B248814209D9120407D5FF
S31508001A584FF4004203E012F0200F5AD020229A6071
S31508001A6819F0080F21D00823C8F808302368A849B0
S31508001A781A6C03F5306303EB47138A42986804D94E
S31508001A88010444BF4FF4004098602046059202F0CE
S31508001A9861F9059A9E498A4207D9A179012904D18B
S31508001AA8206804F29C4201F0C9FA19F0100F1CBF0D
S31508001AB81023C8F8083019F0020F14D073691A06EB
S31508001AC842BF6B6843F480636B609AF85732012B00
S31508001AD806D100238AF857325946204602F092F969
S31508001AE80223C8F8083019F0200F1CBF2023C8F8AD
S31508001AF8083019F4005F1CBF4FF40053C8F80830C3
S31508001B08049B5B080137049308F120080AF1240AA4
S31508001B1875E7DFF8FCC1614501D9120498D41A693A
S31508001B28DAF87432C2F312029B1ACAF868326FB925
S31508001B38D4F864222AB904F29C42012101F07EFAFB
S31508001B4804E0D4F860221A44C4F8602259462046AC
S31508001B5802F006F984E7DFF8BCC1614507D111042C
S31508001B683FF576AF9006F1D520229A60EEE7002F6A
S31508001B78ECD1D4F86432002BE8D104F29C423946F9
S31508001B88DCE7049BDB0740F199805FFA8AF319467C
S31508001B98059301F030FA10F0010F80461FD06B6BE1
S31508001BA801210AF00F0201FA02F223EA02036B6323
S31508001BB8CBF80810A17901290DD1D7E907231344D1
S31508001BC83B62BAF1000F06D1636A23B9206804F2AA
S31508001BD89C4201F033FA0599204602F0CAF818F033
S31508001BE8080F1CBF0823CBF8083018F0100F1CBFC5
S31508001BF81023CBF8083018F0400F1CBF4023CBF849
S31508001C08083018F0020F0FD05146304600F024FE6F
S31508001C18FB7D012B05D100230599FB75204602F0AB
S31508001C28F5F80223CBF808302368069318F0800FD6
S31508001C3844D0D7E909329A4240D8A3EB0208FB698F
S31508001C48984528BF9846069B03F5106308F10308CC
S31508001C5803EB4A134FEA98080793079B996989B2D1
S31508001C684145D7E9093227D393420BD8069B0AF090
S31508001C780F00D3F834280121814022EA0102C3F86B
S31508001C8834281BE0A3EB0209FB69059A06989945CF
S31508001C9828BF9946A3790093396A1FFA89F300F091
S31508001CA8D7FF3B6A4B443B62BB6A09F103084B44BE
S31508001CB84FEA9808BB62D0E79342D7D9049B5B08DA
S31508001CC80AF1010A049324370BF1200B67E520462D
S31508001CD802F08EF87CE5204602F070F8A8E59960CF
S31508001CE81A6822F400121A60C3F80812D3F80022F8
S31508001CF822F40012C3F80022D3F8002242F0006248
S31508001D08C3F80022039A013203922033A1E500BFE3
S31508001D180A30544F0A31544F6B6943F4005343F061
S31508001D282B036B612B6943F00B032B61A8E5B36999
S31508001D3823F08003B361012704F257284FF02409DA
S31508001D482379BB427FF6DCAD09FB07F318F80330A5
S31508001D58012B03D1F9B22046FFF7A5FC0137EFE7B7
S31508001D6898F83C30D9F80020012B09D1002A07DA5F
S31508001D7867F07F0188F83B30C9B22046FFF793FC25
S31508001D88013708F1240809F12009C2E5013124338D
S31508001D982030D0E570B500681204436A19B91343B0
S31508001DA88362002070BD846A4E1E03EB1443002428
S31508001DB8B44205D33F3100EB810013434360F0E793
S31508001DC804F1400500EB850501346D6803EB1543FE
S31508001DD8EEE7036800205962704703460121026846
S31508001DE8C0F8D814002083F8CC04936943F000633C
S31508001DF89361536D43F0805343F00303536570476B
S31508001E087047000008B513498B6803F00C03042BC8
S31508001E181CD0082B1CD14A684B68496813F4800300
S31508001E2814BF0D480D48C1F3881118BF002302F0E6
S31508001E383F02A1FB0001FEF7EBF9064B5B68C3F30B
S31508001E48014301335B00B0FBF3F008BD0248FCE729
S31508001E580248FAE70038024000127A000024F40023
S31508001E682DE9F0410D46044610B90120BDE8F08178
S31508001E78454B1A6802F007028A422AD323689E0746
S31508001E882FD42368D90743D43F4B1A6802F00702B0
S31508001E98AA4268D823685A076ED423681B0707D549
S31508001EA83A4A2169936823F4604343EAC103936075
S31508001EB8FFF7A8FF354B364A9B68C3F30313D35C71
S31508001EC8D840344B1860344B1868FEF7CFFB00200F
S31508001ED8CCE7CAB21A701B6803F007038B42C4D151
S31508001EE8CCE7580741BF294A936843F4E0539360FF
S31508001EF82368264A13F0080F1EBF936843F4604305
S31508001F0893609368A16823F0F0030B439360B8E7DE
S31508001F1862681E4B012A1CD11B6813F4003FA4D023
S31508001F281A4EB36823F003031343B36002F0C0FEE6
S31508001F3841F288380746B368626803F00C03B3EBC6
S31508001F48820FA1D002F0B4FEC01B4045F3D9032086
S31508001F588CE7911E01291B6802D813F0007FDEE77B
S31508001F6813F0020FDBE7EAB21A701B6803F00703DF
S31508001F78AB427FF47AAF8DE7044AE168936823F4A5
S31508001F88E0530B43936088E7003C02400038024060
S31508001F986C5000080800002004000020014B18684F
S31508001FA8704700BF0800002070B5414C02F080FE5B
S31508001FB8236843F00103054623602368980757D525
S31508001FC8236843F08003236002F072FE0023A360AF
S31508001FD8374C054641F28836A36813F00C0F4ED1E4
S31508001FE802F066FE236823F450232360304C054626
S31508001FF82368990349D402F05BFE236823F08073AB
S3150800200823602B4C054623689A0144D402F050FEF7
S31508002018236823F080632360254C054623681B0143
S315080020283FD4244B6360C4F88430E368224A23F417
S31508002038F853E360E36823F40053E360E36843F482
S315080020481F03E360E36843F40013E360636F23F058
S3150800205801036367636F43F080736367174B1A60FE
S31508002068174B1868FEF702FB003818BF012005E071
S3150800207802F01EFE401B02289FD9032070BD02F0FD
S3150800208817FE401BB042A7D9F7E702F011FE401B1E
S315080020986428ADD9F1E702F00BFE401B0228B2D935
S315080020A8EBE702F005FE401B0228B7D9E5E700BFB3
S315080020B800380240103000240024F40008000020EC
S315080020C8040000202DE9F341044640B30368DE07FF
S315080020D810D423689D075BD42368190700F19D80EF
S315080020E823685A0700F1BD80A369002B40F02681B2
S315080020F800202EE08E4B9A6802F00C02042A07D0BC
S315080021089A6802F00C02082A0BD15B68590208D5AE
S31508002118874B1B689A03DCD56368002BD9D1012045
S3150800212817E06268824BB2F5803F15D11A6842F407
S3150800213880321A606368F3B102F0BAFD7C4E054630
S3150800214833689B03C5D402F0B3FD401B6428F7D94E
S31508002158032002B0BDE8F081B2F5A02F1A6803D1B2
S3150800216842F480221A60E1E722F480321A601A687B
S3150800217822F48022DDE702F09BFD6D4E05463368A2
S315080021889F03A6D502F094FD401B6428F7D9DFE71C
S31508002198674B9A6812F00C0F07D09A6802F00C027F
S315080021A8082A11D15B685D020ED4614A136899073B
S315080021B802D5E368012BB2D11368216923F0F80325
S315080021C843EAC103136087E7E2685A4BB2B10122B2
S315080021D81A6002F06DFD564D06462B689B0707D513
S315080021E82B68226923F0F80343EAC2032B6073E7D6
S315080021F802F05EFD801B0228EFD9A9E71A6002F0F3
S3150800220857FD4B4E054633689F077FF565AF02F0C5
S315080022184FFD401B0228F6D99AE76269454B82B1F9
S315080022280122C3F8802E02F043FD414E0546736F1E
S315080022389B073FF555AF02F03BFD401B0228F6D930
S3150800224886E7C3F8802E02F033FD394E0546736FCC
S315080022589F077FF545AF02F02BFD401B0228F6D9EC
S3150800226876E7334B1A6C12F080522BD101921A6C0E
S3150800227842F080521A641B6C03F080530193019B49
S3150800228801262D4D2B68D8051ED5A268284B012A8C
S315080022982AD11A6F42F001021A67A368002B37D0B1
S315080022A802F006FD224F054641F288383B6F9A0729
S315080022B828D5002E3FF418AF1D4A136C23F0805317
S315080022C8136411E70026DCE72B6843F480732B6058
S315080022D802F0EEFC07462B68D905D6D402F0E8FCCE
S315080022E8C01B0228F7D933E7052A1A6F03D142F02B
S315080022F804021A67CDE722F001021A671A6F22F05C
S315080023080402C9E702F0D4FC401B4045CED91FE7B2
S3150800231802F0CEFC064F054641F288383B6F9B070C
S31508002328C7D502F0C5FC401B4045F7D910E700BFE2
S315080023380038024000004742007000403C4DAA6839
S3150800234802F00C02082A41D0022B3A4B4FF0000241
S315080023581A662ED102F0ACFC06462B68990122D4DF
S31508002368D4E907321343626A43EA8213E26A43EA04
S315080023780263226B43EA0273A26A5208013A43EAE5
S3150800238802436B602B4B2A4D01221A6602F090FC19
S3150800239804462B689A013FF5ABAE02F089FC001B90
S315080023A80228F6D9D4E602F083FC801B0228D4D981
S315080023B8CEE602F07DFC04462B689B017FF598AEB5
S315080023C802F076FC001B0228F6D9C1E6012B3FF479
S315080023D8A6AE6B68E26903F4800191427FF49FAE6A
S315080023E8216A03F03F028A427FF499AE616A47F68A
S315080023F8C0721A40B2EB811F7FF491AEA26A5208E6
S3150800240803F44031013AB1EB024F7FF488AEE16A32
S3150800241803F07062B2EB016F7FF481AE226B03F0B2
S31508002428E043B3EB027F14BF0120002091E600BF0A
S315080024380038024000004742034B044A9B68C3F32E
S315080024480313D35CD8407047003802406C50000824
S31508002458034B044A9B68C3F38223D35CD84070476E
S315080024680038024064500008034B044A9B68C3F3CB
S315080024784233D35CD840704700380240645000089D
S315080024880E4A0F49536813F4800F0E4B08BF0B46C4
S31508002498082810D150685168526800F03F00B3FB0D
S315080024A8F0F0C1F388135843C2F3014301335B00C4
S315080024B8B0FBF3F070470020704700BF00380240B1
S315080024C80024F40000127A00064B986800F00C0005
S315080024D8042803D0082803D1FFF7D2BF024870475B
S315080024E8024870470038024000127A000024F400B7
S315080024F810B50446FFF7E8FF2060FFF79DFF606008
S315080025080146FFF7A5FFA0600846FFF7ADFFE060A4
S3150800251810BD000030B5C3689B0485B004460D4657
S3150800252802D5012005B030BD4B68C968C2680B439F
S3150800253829690B43A96922F416420B4322F00C02B7
S315080025481343C3600369AA6823F44053134303611A
S3150800255843696A6923F44073134343616846FFF77E
S31508002568C7FF304B9C4228D103980028D9D02B683E
S31508002578002BD6D0AA691921B2F5004FA0FB010194
S3150800258840D1DA184FF0000545EB0503FDF740FE84
S315080025986422B0FBF2F102FB1103DB003233B3FB12
S315080025A8F2F303F007025B0002EB011203F4F87377
S315080025B813449BB2A3600020B4E71B4B9C4201D18D
S315080025C80298D2E7194B9C42FAD003F54C439C4231
S315080025D8CAD0A3F548439C42F2D003F580639C42CF
S315080025E8EED003F520539C42EAD003F580639C425B
S315080025F8E6D003F51C439C42B6D003F580639C429B
S315080026088FD1B1E79A009B0FFDF702FE6422B0FB53
S31508002618F2F102FB11031B013233B3FBF2F303EBAE
S315080026280113C6E700100140004400400048004076
S3150800263882B0002302460193019B01330193019B53
S31508002648B3F1706F15D81369002BF5DA00230193D7
S31508002658136943F001031361019B01330193019B3D
S31508002668B3F1706F05D8106910F00100F4D102B003
S3150800267870470320FBE784B038B505AD85E80E003A
S315080026889DF81930012B044627D1836B23F4803330
S315080026988363C36823F4840323F04003C360C368D1
S315080026A823F44013C3609DF82030012B02BFC3688A
S315080026B843F48013C360FFF7BBFF9DF81630012B60
S315080026C807D1A36843F00603A360A36843F0200371
S315080026D8A360BDE8384004B07047C36843F04003B8
S315080026E8C360FFF7A5FF9DF81D3023B9A36B43F414
S315080026F88033A363E1E7A36B23F48033F9E700008B
S31508002708022A4AD1274B284A0B44934239D9274BE0
S31508002718274A0B44934236D9264AA1F57403A3F5EA
S315080027281053934231D9244AA1F18373A3F5E74399
S3150800273893422CD3214B224A0B44934229D9214B45
S31508002748214A0B44934226D3204B214A0B449342F1
S3150800275823D3204AA1F1B773A3F5585393421ED33E
S315080027681D4B1E4A0B4493422CBF06230723C268F7
S3150800277822F47052C260C26842EA8323C36000200A
S3150800278870470F23F3E70E23F1E70D23EFE70C2332
S31508002798EDE70B23EBE70A23E9E70923E7E708232D
S315080027A8E5E700BF405327FFFF340C00401E1BFF18
S315080027B83F420F007F4F120020D6130060B6E5FE91
S315080027C85FE3160000D3CEFE40771B00C05BB3FE5E
S315080027D8C091210020753800E05459FEE09C41005C
S315080027E8836843F00103836000207047836823F0F9
S315080027F8010383600020704738B5C368012923F0B0
S31508002808C04305460C46C36014D1C36843F0005359
S31508002818C36000240A20FDF767FF6B69D90704F12E
S315080028280A0402D4C82CF5D1C824A4F1C80358420E
S31508002838584138BD71B9C36843F08043C3600A205C
S31508002848FDF752FF6B69DA0704F10A04EDD5C82CBF
S31508002858F5D1E9E70120ECE782B0002302460193A7
S31508002868019B01330193019BB3F1706F15D8136966
S31508002878002BF5DA8901002341F020010193116143
S31508002888019B01330193019BB3F1706F05D8106959
S3150800289810F02000F4D102B070470320FBE782B09D
S315080028A8002302460193019B01330193019BB3F16F
S315080028B8706F13D81369002BF5DA002301931023D8
S315080028C81361019B01330193019BB3F1706F05D81E
S315080028D8106910F01000F4D102B070470320FBE726
S315080028E8D0F800381943C0F80018002070470000CF
S315080028F884B02DE9F843044609A880E80E000023A9
S315080029089DF824609DF82E50194603F1400204EB01
S31508002918820201330F2B5160F7D104F50067002DA9
S315080029286CD17B6843F002037B60A36B23F4001326
S31508002938A363236843F040032360236843F08003B6
S3150800294823600023C4F8003E9DF82930012B5CD18A
S315080029589DF82710002956D12046FFF7C1FF1021F8
S315080029682046FFF779FF01462046FFF798FF0843F8
S31508002978C0B2002300383B6118BF01207B6104F50B
S315080029881062FB6119464FF0904C4FF0006E4FF6F7
S315080029987F389E423BD8002204F5306311464FF033
S315080029A8904C4FF0006E4FF67F38964242D83B69F6
S315080029B823F480733B610023A3616FF0804363614E
S315080029C89DF826301BB9A36943F01003A361A269D1
S315080029D8224B1343A3619DF82A301BB1A36943F020
S315080029E80803A361012D01BFA36943F0804343F09F
S315080029F80403A361BDE8F84304B07047A36B43F426
S31508002A080013A3639DE71946A6E70321A4E7D2F8AE
S31508002A180090B9F1000F0BDA3BB9C2F800E0116172
S31508002A280133C2F808802032B3E7C2F800C0F6E7D7
S31508002A381160F4E7D3F80090B9F1000F0BDA3AB948
S31508002A48C3F800E019610132C3F808802033ACE7FF
S31508002A58C3F800C0F6E71960F4E700BF00383C8001
S31508002A68D0F8083813F0060004D013F0020F14BF84
S31508002A7802200F20704730B50C78012204F00F05A4
S31508002A88AA404D78012D00F5006300EB441019D1D2
S31508002A98DD692A43DA61D0F800391A0410D48A683D
S31508002AA8D0F80059C2F30A030A792B4343EA82434A
S31508002AB843EA845343F0805343F40043C0F800398B
S31508002AC8002030BDDC6944EA0242DA61D0F8003BEE
S31508002AD81B04F5D48B68D0F8002BC3F30A031343F9
S31508002AE80A7943EA824343F0805343F40043C0F823
S31508002AF8003BE5E730B54A780B78012A00EB431323
S31508002B0800F5006029D1D3F80029002A0BDAD3F892
S31508002B18002942F00062C3F80029D3F8002942F0D8
S31508002B288042C3F800290A78C56B012402F00F020F
S31508002B3804FA02F225EA0202C2630978C26901F0B8
S31508002B480F018C4022EA0402C261D3F80019174A19
S31508002B580A40C3F80029002030BDD3F8002B002A04
S31508002B680BDAD3F8002B42F00062C3F8002BD3F82F
S31508002B78002B42F08042C3F8002B0A78C56B012463
S31508002B8802F00F0204FA02F225EA0242C263097841
S31508002B98C26901F00F018C4022EA0442C261D3F8E7
S31508002BA8001B034A0A40C3F8002BD4E7007833EC25
S31508002BB80078F3EF13B500234A7801930B78012AB6
S31508002BC84FEA431324D100F510601A58002A02DB8D
S31508002BD8002002B010BD1A5842F000621A500B784D
S31508002BE8202414FB03031A6842F080421A6042F252
S31508002BF81072019B01330193019B934201D901206D
S31508002C08E7E70B7814FB03031B68002BF1DBDFE708
S31508002C1800F530601A58002ADADA1A5842F00062C3
S31508002C281A500B78202414FB03031A6842F08042D2
S31508002C381A6042F21072019B01330193019B934279
S31508002C48DDD80B7814FB03031B68002BF3DBBFE7FF
S31508002C5810B59DF8084044B9033301329B0800EBC8
S31508002C68023001EB8303994201D1002010BD51F8C7
S31508002C78042B0260F7E70000F7B54B780F786C4E1F
S31508002C88DFF8B4C1012B00EB471440F084800D69C6
S31508002C9804F5106345BB1D6935401D611D6945F47A
S31508002CA800251D611D6905EA0C051D61012A47D124
S31508002CB8CA6902B15A610B79012B0CD1D0F80838C8
S31508002CC813F4807FD4F800390CBF43F0005343F05F
S31508002CD88053C4F80039D4F8003943F00443C4F8DB
S31508002CE80039002003B0F0BD1D6905EA0C051D6111
S31508002CF81D6935401D610D698E68BFB9B54288BF23
S31508002D080E611D6945F400251D610D691E69C5F327
S31508002D18120535431D610D79012DC7D11D6925F0A9
S31508002D28C0451D611D6945F00055BEE73544013D9E
S31508002D38B5FBF6F53F4E1F6906EAC5453D43E3E789
S31508002D48D4F8003943F00443C4F800390B79012B49
S31508002D580DD00B69002BC4D00A78D0F8344802F095
S31508002D680F02012393402343C0F83438B9E7D0F853
S31508002D78083813F4807FD4F800390CBF43F00053A1
S31508002D8843F08053C4F8003900920B8A0A78C96858
S31508002D98FFF75EFFA5E7D4F8105B05EA0C05C4F84B
S31508002DA8105BD4F8105B3540C4F8105B04F5306343
S31508002DB80E698D683FBB06B10D610D621E69C5F3C4
S31508002DC8120535431D611D6945F40025012A1D6153
S31508002DD802D1CA6802B15A610B79012B0CD1D0F815
S31508002DE8083813F4807FD4F8003B0CBF43F000532F
S31508002DF843F08053C4F8003BD4F8003B43F004433F
S31508002E08C4F8003B6DE7002ED8D02E44013EB6FB29
S31508002E18F5F6B6B275430D62064D1F6905EAC6454D
S31508002E283D431D610D6A1E69C5F312053543CDE795
S31508002E38FFFF07E00000F81F0000F8FF034670B51B
S31508002E480020940803F5805502F00302A04210D327
S31508002E5801EB840062B103F580531C680023D9008E
S31508002E6824FA01F1C154013399B28A42F7D11044C0
S31508002E7870BD2E6841F820600130E7E74A780B787C
S31508002E88012A00EB431012D1D0F80029002A06DBE4
S31508002E982BB1D0F8003923F08043C0F80039D0F8B0
S31508002EA8003943F40013C0F8003900207047D0F8F9
S31508002EB8002B002A06DB2BB1D0F8003B23F0804311
S31508002EC8C0F8003BD0F8003B43F40013C0F8003BB9
S31508002ED8EBE70B7800EB43104B78012B11D1D0F8B0
S31508002EE8003923F40013C0F800390B79023B012B8B
S31508002EF805D8D0F8003943F08053C0F800390020C7
S31508002F087047D0F8003B23F40013C0F8003B0B7950
S31508002F18023B012B9EBFD0F8003B43F08053C0F814
S31508002F28003BECE710B500F51063044600F52E6182
S31508002F384FF67F329A60C3F8082220338B42F9D1BC
S31508002F480022C4F810282046C4F81428C4F81C28F7
S31508002F58FFF7A5FC28B920461021BDE81040FFF761
S31508002F687BBC10BDD0F8003823F4FE63C0F80038DF
S31508002F78D0F80038090101F4FE611943C0F80018B1
S31508002F8800207047D0F8003E23F00303C0F8003E3F
S31508002F98D0F8043823F00203C0F804380020704734
S31508002FA8D0F8003E23F00303C0F8003ED0F80438F2
S31508002FB843F00203C0F80438002070474269806964
S31508002FC810407047D0F8183800F50060C0691840F6
S31508002FD8000C7047D0F8183800F50060C06918402A
S31508002FE880B2704700EB411100F50060D1F8082B54
S31508002FF8406910407047D0F81028D0F8343800EBEC
S31508003008411001F00F01CB4000F51060DB01806824
S31508003018DBB2134318407047406900F00100704757
S31508003028D0F800396FF30A03C0F80039D0F8043825
S3150800303843F48073C0F804380020704730B5114C43
S31508003048056CA54200F5306303D9D0F8004B002C6F
S3150800305816DB00241C611C6944F400241C611C69E5
S3150800306844F018041C611C69012944F0C0441C6119
S3150800307801BF5A61D0F8003B43F08023C0F8003BF3
S31508003088002030BD0A30544FA0B1D0F8B83213B179
S315080030980023C0F8B832D0F8CC3213B10023C0F8F0
S315080030A8CC3209B1C0F8B412012380F89C320270F8
S315080030B800F0C6BE0320704710B5012380F89C327D
S315080030C8D0F8B832044613B15B6801799847D4F842
S315080030D8CC3213B10023C4F8CC32204600F012FFD4
S315080030E820B92046BDE8104000F0FABE10BD37B535
S315080030F800240546ADF8064051B1C0F8B812CB6AA7
S315080031080DF106009847C5F8CC02204603B030BD35
S315080031180320FBE700F0EDBED0F8B8320BB11B6808
S3150800312818470320704708B5D0F8B8320BB15B6862
S315080031389847002008BD38B5044600F2AA2528464F
S3150800314800F034FB012394F8AA12C4F89432B4F8B0
S31508003158B032C4F8983201F01F03012B08D0022BAD
S315080031680CD08BB929462046BDE8384000F0FAB895
S3150800317829462046BDE8384000F05CBA294620466C
S31508003188BDE8384000F07CBA204601F08001BDE869
S31508003198384000F0D5BE70B5044616460D46F9B94E
S315080031A8D0F89432032B0CD1D0E9573293420AD976
S315080031B89B1A9A42C0F85C3128BF1A46314600F075
S315080031C83CFB284670BDD0F8B8321B6923B190F885
S315080031D89C22032A00D19847204600F036FBF0E7E0
S315080031E8D0F8B8329B6933B190F89C22032A02D1E9
S315080031F8BDE8704018470325E3E770B50446164648
S315080032080D46D9BBD0F89432022B0ED1D0E9073235
S31508003218934213D99A1AC261314600F006FB2B4627
S315080032282A462946204600F0AFFE94F8A032012B1C
S3150800323802D1002384F8A032284670BD0CD18269D1
S31508003248934209D8D0F898329A4205D20A4600F02D
S31508003258ECFAC4F89852E2E7D4F8B832DB682BB12E
S3150800326894F89C22032A01D12046984780212046B3
S3150800327800F066FE204600F0F3FAD6E7D0F8B83232
S315080032885B6933B190F89C22032A02D1BDE87040E5
S3150800329818470325D0E770B5012380F89C32D0F883
S315080032A8BC3200210446C0F894124160C0F8A41242
S315080032B81BB1D0F8B8325B689847002240251146FA
S315080032C801264023204600F026FEA4F86461C4F8C7
S315080032D860512B4600228021204600F01CFEA68459
S315080032E82562002070BD01740020704790F89C3252
S315080032F880F89D32042380F89C320020704790F8A5
S315080033089C32042B04BF90F89D3280F89C3200202A
S31508003318704708B590F89C22032A04D1D0F8B83229
S31508003328DB6903B19847002008BD002070470020D4
S3150800333870470020704708B5012280F89C22D0F80B
S31508003348B82212B1526801799047002008BD10B515
S315080033588021044600F0F4FD20460021BDE810400F
S3150800336800F0EEBD37B50B7803F06003202B044652
S315080033780D4606D0402B04D063B12046FFF7E7FF79
S31508003388CCE0D4F8B8329B682946204603B0BDE895
S31508003398304018474B78092BEFD801A252F823F08A
S315080033A8ED3500082136000883330008153600086D
S315080033B883330008E9340008D1330008833300084A
S315080033C8C3350008313500080023ADF806304B88A8
S315080033D81A0A013A0E2AD0D801A151F822F000BFDC
S315080033E82F340008613400087B340008833300084A
S315080033F883330008BB340008D13400088333000837
S3150800340883330008833300088333000883330008AE
S31508003418833300088333000825340008D0F8B4320B
S31508003428DB691BB9A9E7D0F8B4321B68207C0DF113
S3150800343806019847EA88002A00F0A280BDF80630F7
S31508003448002B9AD09A4228BF1A46ADF8062001469C
S31508003458204600F0DDF961E0027CD0F8B83232B9CE
S315080034689B6A0DF10600984702234370E2E7DB6A78
S31508003478F7E7DBB2052B80D8DFE803F003070B0F65
S315080034881317D0F8B4325B68CBE7D0F8B4329B6828
S31508003498C7E7D0F8B432DB68C3E7D0F8B4321B699B
S315080034A8BFE7D0F8B4325B69BBE7D0F8B4329B699A
S315080034B8B7E7037C002B7FF460AFD0F8B8320DF17C
S315080034C806005B6B9847B5E7037C002B7FF455AF7E
S315080034D8D0F8B8320DF106001B6B98470723C4E7E6
S315080034E88B88002B7FF449AFCB88002B7FF445AF38
S315080034F84D887F2D3FF641AF90F89C32032B3FF459
S315080035083CAFEDB280F89E52294600F02BFD2046C6
S3150800351800F09BF935B1022384F89C320025284629
S3150800352803B030BD0123F7E78978414D0129297091
S3150800353803D9FFF70CFF0325F1E790F89C32022B15
S3150800354808D0032B15D0FFF702FF29782046FFF786
S31508003558EAFDF0E7A1B101214160FFF7DDFD054667
S31508003568204615B1FFF7F3FED9E700F06EF90323F5
S31508003578D2E749B9022380F89C324160FFF7D3FDA8
S31508003588204600F062F9C9E741680129F8D0C9B2AE
S31508003598FFF7C9FD297861602046FFF7BDFD054696
S315080035A80028EDD02046FFF7D2FE21792046FFF7FE
S315080035B8BAFD022384F89C32B1E7CA88012A7FF447
S315080035C8DCAE90F89C32022B07D8002B3FF4D5AE18
S315080035D80146002341F8083F3AE7032B7FF4CDAEAE
S315080035E8011D35E790F89C32013B022B3FF6C5AE24
S315080035F8CA88022A7FF4C1AED0F8A4320146002B45
S315080036080CBF0123032341F80C3F21E74B88012B04
S3150800361884D1C4F8A432B3E790F89C32013B022B54
S315080036283FF6ABAE4B88012B7FF478AF0023F0E763
S315080036381402002070B50B7803F060025B06044696
S315080036480D4601D5402A16D194F89C32013B022B27
S3150800365811D82B79012B0ED8D4F8B83229469B688D
S3150800366820469847EB8806461BB910B9204600F04D
S31508003678ECF8304670BD2046FFF769FE0026F8E7E5
S3150800368870B50B788A8803F06003202B04460D462C
S3150800369806D0402B04D05BB12046FFF758FE42E01F
S315080036A8D4F8B832294620469B68BDE870401847C2
S315080036B86B78012BD1B238D0032B23D0002BEBD152
S315080036C890F89C32022B50D0032BE5D101F00F035A
S315080036D812F0800F4FF0140202FB030354D09B8CA0
S315080036E8002BD9D001F07F05013505EB8505802922
S315080036F800EB850553D0204600F0D6FB002853D0AA
S3150800370801234DE090F89C32022B25D0032BC3D118
S315080037186B882BB94A0603D0EB880BB900F010FC66
S31508003728204600F092F8002070BD90F89C32022BD3
S3150800373812D0032BB0D16B88002BF4D14E0601D0DA
S3150800374800F007FC204600F080F8D4F8B83229467D
S315080037589B6820469847E6E74B069DD000F0F0FBA5
S315080037688021204600F0ECFBDDE7490694D11306D4
S315080037784CBF00F1140100F5AA7100230B60022260
S31508003788204600F045F8CEE7B3F86431002B83D01D
S31508003798142505FB010505F5AA750029ABD10023F3
S315080037A82B6002222946EBE72860FAE70B780370B4
S315080037B84B7843704B8843808B888380CB88C3803B
S315080037C8704710B58021044600F0BAFB2046002150
S315080037D8BDE8104000F0B4BB70B50D461646044661
S315080037E870B1FCF7ABFEC3B201335B0033802B70B4
S315080037F803236B70013C0223002114F8012F02B938
S3150800380870BDEA545A1CD2B20233A954DBB2F4E7A3
S3150800381810B513460222C0E90633C0F894220A46B0
S31508003828002100F0A8FB002010BD08B513460A467B
S31508003838002100F0A0FB002008BD08B513460A467B
S31508003848002100F0A1FB002008BD08B50423C0F834
S31508003858943200231A46194600F08DFB002008BD4D
S3150800386808B50523C0F8943200231A46194600F00D
S315080038788BFB002008BD0000034AD2F8883043F4C1
S315080038887003C2F88830704700ED00E000B597B0BD
S3150800389800248DF80740FCF70DFF2146342209A8B5
S315080038A801F0A4FB1422214604A801F09FFB2B4B28
S315080038B802941A6C42F080521A641B6C03F0805307
S315080038C80293029B264B03941A6842F440421A60F4
S315080038D81B6803F4404303930120039B4FF4A0237A
S315080038E8CDE909034FF480020223CDE90F320824F3
S315080038F84FF4A872139309A80723CDE91142149324
S31508003908FEF7E0FB18B11748972100F0C5FB02231C
S315080039180F220021CDE904234FF4A053CDE906135D
S3150800392804A84FF4805305210893FEF799FA18B1AD
S315080039380C48A62100F0B0FB00F05EF900F0F8FB91
S315080039480DF10701002000F06DF99DF80730012BED
S3150800395801D100F088FC00F0FAFBFCE700380240C9
S31508003968007000407C5000082DE9F04391B0554C92
S31508003978DFF8608100250195236C43F080532364A2
S31508003988236C03F080530193019B0295636C43F4FF
S3150800399880436364636C03F480430293029B039534
S315080039A8236B43F001032363236B03F0010303939B
S315080039B8039B0495236B43F002032363236B03F0ED
S315080039C802030493049B0595236B43F004032363BE
S315080039D8236B03F004030593059B0695236B43F0B5
S315080039E808032363236B03F008030693069B0795CE
S315080039F8236B43F040032363236B03F040030793C9
S31508003A08079B0895236C43F480232364236C03F4EB
S31508003A1880230893089B0995236C43F00073236455
S31508003A28236C03F000730993099B802601230BA9CD
S31508003A384046CDE90B63CDE90D55FDF79BFA2A46B5
S31508003A4831464046FDF7FCFB4FF400530BA91E48C8
S31508003A580D9502270326CDE90B354FF44079FDF776
S31508003A6889FA07230BA919480D95CDE90E63CDE9FF
S31508003A780B97FDF77FFA09230BA940460F93CDE963
S31508003A880B97CDE90D56FDF775FA4FF4C053CDE9F6
S31508003A980B370F480A230BA90F93CDE90D56FDF7E7
S31508003AA869FA636B43F0800363630A95636C43F4AE
S31508003AB880436364636C03F480430A930A9B11B0DA
S31508003AC8BDE8F0830038024000080240000C0240B6
S31508003AD8000002400004024038B52C4D2C4CFEF775
S31508003AE863FA002228468021FDF7AAFB284680218A
S31508003AF8FDF718FB27484FF40051FDF713FB20463E
S31508003B084FF40061FDF70EFB204604F560544FF4A8
S31508003B188051FDF707FB636B23F080036363284630
S31508003B284FF48071FDF7FEFA28464FF40071FDF749
S31508003B38F9FA236C05F5006523F0007323644FF43E
S31508003B4880712846FDF7EEFA4FF400712846FDF70E
S31508003B58E9FA236C23F480232364236B23F00803F0
S31508003B682363236B23F004032363236B23F00203E5
S31508003B782363236B23F001032363236C23F0805309
S31508003B882364636C23F48043636438BD00040240ED
S31508003B980000024000080240704700000B4A52F82D
S31508003BA8033BD8B200EB1360C3F307210144C3F300
S31508003BB80740084480B2002312F8011F013308445D
S31508003BC8382B80B2F8D1404280B270478C01002069
S31508003BD810B5074C074B22689A4206D1FFF7DEFF55
S31508003BE8A38F1B1A5842584110BD0020FCE700BF96
S31508003BF88C010020A2E742CE10B5FFF7E9FF01467F
S31508003C0850B9064C064B2046382240F8043B01F0CA
S31508003C18EDF9FFF7C3FFA08710BD00BF8C01002090
S31508003C28A2E742CE38B505460C46FFF7D1FF30B1B4
S31508003C38372D05D834B1044B2B441B79237038BD6E
S31508003C480020FCE72046FAE78C01002020230380A1
S31508003C5800487047AC0000200A23038000487047D4
S31508003C680401002008B590F89C32032B01D101F015
S31508003C7849F9002008BD08B501F044F9002008BD37
S31508003C8808B5084601F080F9002008BD10B581215D
S31508003C98044600F04CF90121204600F048F90020B6
S31508003CA810BD000010B5402304460222812100F009
S31508003CB832F9402302220121204600F02CF9044A51
S31508003CC840230121204600F05FF9002010BD00BFFF
S31508003CD81802002010B50A7812F0600204460DD0C2
S31508003CE8402A09D14A78012A06D18B88072B03D19D
S31508003CF812499E22FFF78CFD002010BD4A780A2A31
S31508003D0811D00B2A12D0062AF6D14A88120A212A75
S31508003D1806D1CA880A49172A28BF17222046E9E77A
S31508003D2808491722FAE708490122E3E78B7813B905
S31508003D38054A1360E0E7FFF744FDDDE70C000020BD
S31508003D48BE000020B5000020580200200048704731
S31508003D581802002000F29C41D0F8E004FFF7EBB9FE
S31508003D68242303FB0103D0F8E004D3F86022FFF705
S31508003D7812BA242303FB0103D0F8E0041A6AFFF7F2
S31508003D883CBAD0F8E004FFF7C4BA000010B5C17908
S31508003D98044631B1022903D00748962100F07CF978
S31508003DA80121D4F8E004FFF79EFAD4F8E004BDE848
S31508003DB81040FFF770BA00BF8350000810B50446D4
S31508003DC8D0F8E004FFF792FA2268D2F8003E43F0EA
S31508003DD80103C2F8003EE37A23B1044A136943F0A3
S31508003DE806031361BDE81040FCF7F0BB00ED00E0E0
S31508003DF810B50446FCF7EBFBD4F8E004BDE8104020
S31508003E08FFF77DBAD0F8E004FFF791BAD0F8E004D6
S31508003E18FFF78BBA10B504460120FCF7D6FBD4F891
S31508003E28E004BDE81040FFF784BA10B50446002040
S31508003E38FCF7CBFBD4F8E004BDE81040FFF77BBAE3
S31508003E4808B50278034642BB1548C0F8E034C3F8FB
S31508003E58C4024FF0A0430360042303714FF40073B0
S31508003E68C38002234372012343810273C281FDF78B
S31508003E78EDF920B10B484FF4957100F00DF9802142
S31508003E880748FDF7A6FF402200210548FDF782FFEF
S31508003E98034880220121FDF77DFF002008BD00BFE9
S31508003EA85C0200208350000811F0800FD0F8C43255
S31508003EB84FF024021BBF01F07F0102FB013302FB0E
S31508003EC80133987D08BF93F856027047D0F8C402A4
S31508003ED8FDF75BBB18B102280CBF01200320704709
S31508003EE808B5D0F8C402FDF727FABDE80840FFF779
S31508003EF8F1BF08B5D0F8C402FDF733FABDE80840A3
S31508003F08FFF7E8BF08B5D0F8C402FDF74AFABDE8D6
S31508003F180840FFF7DFBF10B51446D0F8C4021A46A2
S31508003F282346FDF7AFFABDE81040FFF7D3BF08B53B
S31508003F38D0F8C402FDF7DDFABDE80840FFF7CABFA6
S31508003F4808B5D0F8C402FDF742FBBDE80840FFF7FC
S31508003F58C1BF08B5D0F8C402FDF770FBBDE8084034
S31508003F68FFF7B8BF08B5D0F8C402FDF778FABDE878
S31508003F780840FFF7AFBF08B5D0F8C402FDF70DFB38
S31508003F88BDE80840FFF7A6BF08B5D0F8C402FDF794
S31508003F98DEFABDE80840FFF79DBF00001223014876
S31508003FA80B80704754010020042301480B80704792
S31508003FB82C010020212301480B807047300100207E
S31508003FC8002370B54D1C1E46040FB0F1204F34BFB0
S31508003FD83034373401F8134005F813600133DCB27E
S31508003FE8A2424FEA0010EFD870BD000010B51A2398
S31508003FF80B800A4BD3F8100AD3F8182A80180AD067
S31508004008D3F8144A06490822FFF7DAFF04221031C2
S315080040182046FFF7D5FF034810BD00BF0070FF1FF5
S31508004028120100201001002010B5044C04480A4665
S315080040382146FFF7D1FB204610BD00BF40070020E8
S315080040488F50000810B5044C04480A462146FFF765
S31508004058C3FB204610BD00BF400700209C5000083F
S3150800406810B5044C04480A462146FFF7B5FB204616
S3150800407810BD00BF40070020AF50000810B5044C1B
S3150800408804480A462146FFF7A7FB204610BD00BF8D
S3150800409840070020B750000808B500F0E8F8FCE724
S315080040A810B500F0D9F8012814D00B4C2378012B49
S315080040B810D100F0F5FD094B094A1B68126813442C
S315080040C803F5FA73984205D300232370BDE8104018
S315080040D800F0E0BA10BD00BF4809002040090020DA
S315080040E844090020014B1860704700BF40090020AA
S315080040F8014B1868704700BF4009002008B5044BF3
S315080041081B78012B03D100F0CBFD024B186008BDC4
S31508004118480900204409002008B5044B01221A70F2
S31508004128FFF7ECFFBDE80840FFF7BABF48090020CB
S3150800413808B500F0ADFA00F098F800F035FD00F083
S3150800414885FC00F00FF8BDE80840FFF7E5BF08B59D
S3150800415800F08DF800F086FD00F018F8BDE8084074
S31508004168FFF79EBF10B5084C00F090F800F0F2F97A
S315080041780223237000F092FC0023237000F0EEFD62
S315080041880323237010BD00BF8801002007B518480F
S315080041980DF1070100F062FA012807D1154B9DF8C1
S315080041A80710134802221A7000F092F810480DF109
S315080041B8070100F0ABFC012807D10E4B9DF8071044
S315080041C80B4800221A7000F083F809480DF1070118
S315080041D800F050FE012807D1064B9DF80710044841
S315080041E803221A7000F074F803B05DF804FB00BFE8
S315080041F8490900208801002000F000BE70B50D4E60
S315080042083378022B05460C4602D1C9B200F002FAE9
S3150800421833781BB9E1B2284600F05EFC3378032BE5
S3150800422803D1E1B2284600F0F9FDBDE8704000F078
S3150800423847B800BF88010020054B1B78022B04D01D
S31508004248032B0CBF3F20812070470820704700BF0A
S3150800425888010020FFF7F0BF08B500F027F80038F6
S3150800426818BF012008BDFFF749BFFCF7A9B9FCF735
S31508004278AAB90000034BFE221A7002225870A3F846
S3150800428886207047CC09002000687047064B002234
S31508004298C3F88820A3F8862083F88120A3F882200B
S315080042A883F88420704700BFCC090020034B93F895
S315080042B88100003818BF0120704700BFCC090020CC
S315080042C8024B002283F88420704700BFCC090020DF
S315080042D8F8B503789C4CFF2B054630D101220023FC
S315080042E884F8812041F2FF0284F88230A370228084
S315080042F8FFF7A2FFE070FFF7ADFF2071FFF7AAFFEF
S3150800430840F20113000AE38008236071A4F8863096
S3150800431800F09CFB94F88430012B02D11020FFF79B
S31508004328A9FFB4F98610002940F30D81012384F802
S315080043388430BDE8F840844889B2FFF75FBF94F82F
S315080043488120012A40F0FF80D22B1DD8C82B01D81E
S31508004358202043E0C93B092BFAD801A252F823F0DA
S31508004368A94400085943000859430008BD440008F1
S31508004378594300085943000849450008D744000826
S31508004388314500081B45000803F10D02D2B20B2A75
S31508004398DED8F33B0B2BDBD801A252F823F000BF7B
S315080043A83B4400080F440008D9430008294400087C
S315080043B8594300085943000859430008714400083E
S315080043C859430008814400088544000899440008B0
S315080043D8FFF732FF6A78904203D82220FFF74AFF90
S315080043E898E7D4F88810594800F078F9FF236A78CE
S315080043F82370D4F888301344C4F888306B780133AE
S31508004408A4F8863086E7FFF717FF6B788342E4D26D
S31508004418281DFFF739FFC4F888006A780146E2E7DD
S31508004428FF23281D2370FFF72FFFC4F888000123F0
S31508004438E6E7281DFF232370FFF726FFD4F88860D0
S3150800444800258719BE4208D1002301222571637108
S31508004458E380627063800823D2E716F8013B1D449F
S31508004468EDB2FFF704FFEDE7394BC4F88830FF22B1
S315080044780723C4E90023EEE70020AFE7FF232380DC
S3150800448894F88230A3700023E370A3800623B7E765
S31508004498002384F8813084F88230FF232370C6E726
S315080044A8D4F88860FFF7C8FE6A1C411E304600F03B
S315080044B8CFFA08B9312091E7FF232370FFF7BCFE2E
S315080044C8D4F8883001380344C4F88830AFE7FFF7D2
S315080044D8B3FE6B78013898427FF77FAFFF232370C6
S315080044E80123A4F88630697829B900F0B9FA0028B2
S315080044F87FF410AFDEE7D4F88800AA1C00F0A8FA03
S315080045080028D7D06A78D4F888301344C4F8883095
S3150800451800E7FF2300252380A570FFF78DFEA580F9
S31508004528E070A57107236BE70430FFF7ADFED4F8F2
S3150800453888300146184600F08DFA0028ADD1B9E74B
S3150800454800F0A8F8A9E7F8BDCC090020CD09002095
S3150800455865510008F0B58BB06846FDF7C9FF294CC8
S31508004568029D002006464FF4FA774FF47A73B5FB96
S31508004578F3F522786378D11801FB0771B5FBF1FCCE
S3150800458801FB1C5129B91FFA8CF6711EB1F5806F0B
S315080045980AD30130122804F10204EAD11A48B521CF
S315080045A8FFF77AFD00231A46184C19492160013A83
S315080045B8013B00254FF0807112041B052046A161B6
S315080045C8226163616660C4E90255A583FCF7A1F810
S315080045D801234CF6E042CDE9002507930422089307
S315080045E869460E234FF6E0762046CDE9026209931E
S315080045F8CDE905550495FCF70DF92046FCF79AF917
S315080046080BB0F0BD6D510008CD500008580A0020BF
S315080046180064004030B589B040F2E1730293002384
S31508004628CDE90433024606910B4801AB02A9FCF70B
S31508004638ACF978B900F034FB074D00F1320401995A
S315080046482846FCF7F4F928B1FFF711FE00F028FB15
S31508004658A042F4D909B030BD580A002010B588B070
S3150800466803460C46094801AA0021FCF7F1F958B98E
S31508004678019A40F267639A4204D1039B13B9059BD2
S315080046882370012008B010BD0020FBE7580A002057
S3150800469800F0A8BC10B500F0DFF918B9BDE810405D
S315080046A8FFF7E1BDFBF77CFF0028F7D0FFF7A4FD6D
S315080046B8FBF7BEFF00F0B8FA00F0D0F9064B20F079
S315080046C8604020F07F00986000F0C8F9446800F060
S315080046D88BFCA047E2E700BF00ED00E0F8B5064608
S315080046E80F4615460024AC4200D1F8BD3B5D33554C
S315080046F8FFF7BDFD0134F6E7F8B50C4C064600256C
S315080047082746FFF7B4FD2368B34208D862681344FE
S31508004718B34204D90C2303FB0577387AF8BD01356B
S315080047280A2D04F10C04ECD1FF20F7E79451000890
S315080047382DE9F8430646FCF7E7FA002506F10409C9
S31508004748D6F8008059F8057005EB0804FFF78FFDC1
S3150800475821463A4600230220FCF71AFB044668B9A4
S3150800476855F80830BB4204D10435B5F5007FE7D1C2
S315080047780124FCF7DBFA2046BDE8F8830024F8E7AD
S3150800478838B50E4B984204460D4607D00C4A914256
S3150800479812D0FFF7CDFF10B904460BE0094C236881
S315080047A89D4207D020464FF4007240F8045B29461C
S315080047B8FFF794FF204638BD1C46F0E7800A00201C
S315080047C800800008840C00202DE9F0411F46036884
S315080047D821F4FF76013304460D46904626F0010675
S315080047E806D140F8046B4FF400723146FFF776FF9E
S315080047F82368B34205D020463146FFF7C1FF044671
S31508004808E8B123680435ED1A254406F500764744C9
S31508004818FFF72DFD231DEB1AB3F5007F06D32046B7
S315080048283146FFF7ADFF044648B1051D18F8013BA8
S3150800483805F8013BB845EBD10120BDE8F081002019
S31508004848FBE70000034A4FF0FF331360024A136080
S31508004858704700BF840C0020800A0020124B70B5F0
S315080048681B1A16464A1E9A4204460D4619D8FFF7D9
S3150800487843FFFF2815D0601E2844FFF73DFFFF2891
S315080048880FD00A4B24F4FF7222F001029A422146FD
S315080048982B4632460CBF06480648BDE87040FFF767
S315080048A893BF002070BD00BFFFFF0F0800800008F7
S315080048B8800A0020840C00202DE9F047344B4A1E54
S315080048C81B1A9A4286B004460E4604D90024204686
S315080048D806B0BDE8F087FFF70FFF0546601E3044AF
S315080048E8FFF70AFFFF2D0646F0D0FF28EED0002472
S315080048F8012D0094EBD90B28E9D88542E7D801237E
S3150800490802220194CDE90432FCF7FEF9214F2C4620
S31508004918E1B28E4203D20124FCF708FAD7E71E4A09
S3150800492800231046157A8D4221D10C225343C2180A
S3150800493850F80390556849EA05039B0704D04FF4D5
S315080049482E713846FFF7A8FB4FEA95080025454516
S315080049584FEA850A01D10134DAE7EBB20BB9FFF75A
S3150800496886FC5AF80930013306D10135EFE70133D9
S315080049780A2B02F10C02D5D1FFF779FC694601A882
S315080049880394FCF7A7FA0028E5D00024C4E700BF7B
S31508004998FFFF0F08F25000089451000807B50E4AA1
S315080049A81368013316D0D2E901310B44D1680B4894
S315080049B80B4411690B4451690B449169D2690B443C
S315080049C813445B4201AA04210193FFF747FF03B08A
S315080049D85DF804FB0120FAE7800A0020AC8100088C
S315080049E80A4AD2E900310B4491680B44D1680B4452
S315080049F811690B4451690B449169D2F8AC210B44EF
S31508004A08D3420CBF01200020704700BF0080000871
S31508004A1808B50A480368013305D10948036801330C
S31508004A2806D1012008BDFFF783FE0028F5D1F9E76E
S31508004A38FFF77EFE003818BF0120F3E7800A00203A
S31508004A48840C00200048704700800008FFF7FABE6B
S31508004A58FFF704BFFFF730BFFFF7C2BFFFF7F2BF84
S31508004A6808B5FFF79BFF18B1BDE80840FFF7D0BFA8
S31508004A7808BD000038B5084D686000F011F900F166
S31508004A880A042B681B0605D4FFF7F1FB00F008F9A2
S31508004A98A042F6D938BD00BF0048004010B50D4CF5
S31508004AA8E36823F4005388B04FF46142E3600023B7
S31508004AB8CDE9012301A90C222046CDE90333CDE926
S31508004AC805230793FDF726FDE36843F40053E360DF
S31508004AD808B010BD00480040812938B504460D467F
S31508004AE803D909488621FFF7D7FA2846FFF7C2FFF0
S31508004AF82544AC4200D138BDFFF7B9FB14F8010BC1
S31508004B08FFF7B8FFF5E700BF195100082DE9F0418E
S31508004B18204C214E25780F46ADB933689B060FD52C
S31508004B2873681E4ADBB21370013BDBB2802B07D8C9
S31508004B3800F0B6F81A4B18601A4B1D70012323703B
S31508004B480020BDE8F0813568DFF8588015F02005A3
S31508004B5898F8003014D011497568CA180133557089
S31508004B680A78DBB29A4288F80030E9D10131FFF7B2
S31508004B78B5FD0023237098F800303B700120E0E764
S31508004B8800F08EF8064B1B68C8339842D8D92570AA
S31508004B98D6E700BF140F002000480040900E0020FA
S31508004BA88C0E0020880E0020184B19495A6C42F0C2
S31508004BB8010282B05A645A6C02F001020192019A03
S31508004BC89A689B68C2F3423213F4604F8A5C1149AB
S31508004BD8096821FA02F1104A14BF022301230120A9
S31508004BE810604B434FF6FF700C49B3FBF1F3013BDA
S31508004BF8D0629362536943F001035361084B00215D
S31508004C081960526A074B1A8002B07047003802408A
S31508004C18645000080800002000000140A086010032
S31508004C28180F0020160F00200C4B5A6A42F0010292
S31508004C385A625A6A22F001025A625A6C22F0010232
S31508004C485A644FF0E02300221A615A619A61044AAD
S31508004C58536843F000735360704700BF003802403A
S31508004C6800ED00E010B50B4B0B485B6A02889B1AEF
S31508004C789BB2632B0DD9094C6421B3FBF1F3216868
S31508004C88194403EB830303EB830302EB83022160D6
S31508004C98028010BD00000140160F0020180F0020E2
S31508004CA808B5FFF7DFFF014B186808BD180F002085
S31508004CB808B5FFF7D7FF014B186808BD180F00207D
S31508004CC8012838B504460D4604D90F484FF4E07153
S31508004CD8FFF7E2F918230D495C430B19587C1A7C2F
S31508004CE890420FD0DA6815705A7C586801325A749F
S31508004CF8DA6801328242DA6001D8012038BD0A59D9
S31508004D08DA60FAE70020F9E740510008F8120020AF
S31508004D18012838B504460D4604D90E484FF4F171F2
S31508004D28FFF7BAF918230C495C430B19587C60B18C
S31508004D389A6812782A705A7C5868013A5A749A6896
S31508004D48013282429A6001D8012038BD0A599A6010
S31508004D58FAE700BF40510008F812002038B5204B82
S31508004D682049196003F118025A61002201F8012C3A
S31508004D78C3E9021101F13F041B495C600A601B493B
S31508004D881B4C9961402018821885012501F13F00BE
S31508004D98C3E90811D86101F8015C20461549DA62A9
S31508004DA89A7483F82A50FEF76FF913492046FEF7D6
S31508004DB89EF92846FBF709FC2046FEF7ABF9D4F816
S31508004DC8C402FCF712FBFFF793F9B0F5FA6F05D2A0
S31508004DD8BDE838404FF4FA60FFF784B938BD00BF1C
S31508004DE8F8120020B2120020F412002071120020D6
S31508004DF8A00F002068010020CC00002010B5064C42
S31508004E08D4F8C402FCF70EFB2046FEF755F9BDE8B0
S31508004E1810400020FBF7D9BBA00F00203F29F8B5A2
S31508004E2804460D4603D91148B921FFF735F9104E3E
S31508004E3829463078FFF744FF012803D00B48BD21DF
S31508004E48FFF72AF9094F2544AC4200D1F8BDFFF708
S31508004E580EFA14F8011B3078FFF732FF0128F3D051
S31508004E68C6213846FFF718F9EEE700BF4051000893
S31508004E78B11200202DE9F8431D4B1E4F1E4D8046E2
S31508004E88D3F8C4020E46FCF71FFC3C781B4B84B9C2
S31508004E9818782946FFF73CFF012806D12B78013BED
S31508004EA83E2B9EBF164B38701C7000242046BDE862
S31508004EB8F883DFF84C90187899F8001001312944DE
S31508004EC8FFF726FF01280446EFD199F800302A781B
S31508004ED80133DBB29A4289F80030E6D1691C4046AC
S31508004EE8FFF7FCFB00233B7099F800303370DDE7C9
S31508004EF8A00F00209D0F00205D0F002070120020D3
S31508004F085C0F00202DE9F3411A4F3C78012C04D98F
S31508004F18194840F20221FFF7BFF8184B182202FB7E
S31508004F2804335C7C1CB3402C154EDFF84C8028BF34
S31508004F384024002538780DF10701FFF7E9FE012816
S31508004F4804D04FF4A3714046FFF7A6F80135EDB231
S31508004F589DF8073006F8013BAC42EBD1084A0948E8
S31508004F682346812102B0BDE8F041FFF704B802B034
S31508004F78BDE8F081B112002040510008F81200205F
S31508004F881C0F0020A00F00202DE9F0410546FEF76A
S31508004F98DDFE294604461048104E114FFEF796FFC7
S31508004FA814FA80F5AC4209D1FEF7D0FEBDE8F04107
S31508004FB80246402308480121FEF7E6BF14F8011BFC
S31508004FC83078FFF77DFE0128ECD04FF4B4713846E7
S31508004FD8FFF762F8E6E700BFA00F0020701200206E
S31508004FE84051000872B6704762B6704702440346D5
S31508004FF8934200D1704703F8011BF9E770B50D4DC8
S315080050080D4C641BA4100026A64209D10B4D0C4C66
S3150800501800F018F8641BA4100026A64205D170BD36
S3150800502855F8043B98470136EEE755F8043B984788
S315080050380136F2E714520008145200081452000800
S3150800504818520008F8B500BFF8BC08BC9E46704759
S31108005058F8B500BFF8BC08BC9E467047BF
S315080050640000000001020304000000000000000024
S3150800507401020304060708096D61696E2E6300754B
S315080050847362645F636F6E662E63004F70656E426B
S315080050944C5420557365720057696E555342204225
S315080050A4756C6B204465766963650044656661754D
S315080050B46C740057696E5553422042756C6B2049CF
S315080050C46E74657266616365002E2E2F2E2E2F2E42
S315080050D42E2F536F757263652F41524D434D345FBE
S315080050E453544D333246342F63616E2E63002E2E8D
S315080050F42F2E2E2F2E2E2F536F757263652F415226
S315080051044D434D345F53544D333246342F666C61E8
S3150800511473682E63002E2E2F2E2E2F2E2E2F536FAE
S31508005124757263652F41524D434D345F53544D3365
S315080051343246342F72733233322E63002E2E2F2EBC
S315080051442E2F2E2E2F536F757263652F41524D43A2
S315080051544D345F53544D333246342F7573622E6380
S31508005164004F70656E424C5400050206020603079A
S31508005174030803090309040A040B040C040C050DAB
S31508005184050E050F050F0610061007100800000087
S3150800519400800008004000000200000000C000086B
S315080051A400400000030000000000010800000100A0
S315080051B404000000000002080000020005000000C8
S315080051C400000408000002000600000000000608AB
S315080051D400000200070000000000080800000200A2
S315080051E40800000000000A08000002000900000088
S315080051F400000C08000002000A00000000000E0867
S30D08005204000002000B00000087
S30D0800520C3CB0FF7F0100000021
S30908005214FD01000882
S30908005218D9010008A2
S3150800521C01000000100000000024F4000A00000041
S3150800522C000003069E001400030057494E555342CE
S3150800523C00000000000000000000800004000100CF
S3150800524C2800440065007600690063006500490083
S3150800525C6E007400650072006600610063006500EC
S3150800526C470055004900440000004E007B003800FA
S3150800527C30003700390039003900430033002D005F
S3150800528C45003400450030002D0034003000450040
S3150800529C41002D0038003100380038002D0034004C
S315080052AC380045003800350032004200350034001D
S315080052BC4600320042007D00000000000902200072
S315080052CC010100C0320904000002FF0000000705B6
S315080052DC81024000FF070501024000FFAD3C0008B3
S315080052EC953C0008DD3C00080000000000000000AA
S315080052FC7F3C0008893C00086D3C00080000000053
S3150800530C0000000000000000553C000800000000EA
S3150800531C613C00080A06100100000040010000006C
S3150800532C1A03000000000000000000000000000046
S3150800533C000000000000000000000000040309043F
S3150800534C050F2100011C100500DF60DDD88945C753
S3150800535C4C9CD2659D9E648A9F000003069E0001A4
S3150800536C000000001201010200000040501DAC6054
S3150800537C0001010203010000A53F0008B13F000827
S3150800538C314000084D400008F53F00086940000808
S3110800539C85400008BD3F00080500000021
S315080053A800000000000000000000000000000000E7
S315080053B800000000000000000000000000000000D7
S315080053C800000000000000000000000000000000C7
S315080053D800000000000000000000000000000000B7
S7050800055598
